{
  "contractName": "PassToken",
  "abi": [
    {
      "inputs": [],
      "stateMutability": "nonpayable",
      "type": "constructor"
    },
    {
      "anonymous": false,
      "inputs": [
        {
          "indexed": true,
          "internalType": "address",
          "name": "owner",
          "type": "address"
        },
        {
          "indexed": true,
          "internalType": "address",
          "name": "approved",
          "type": "address"
        },
        {
          "indexed": true,
          "internalType": "uint256",
          "name": "tokenId",
          "type": "uint256"
        }
      ],
      "name": "Approval",
      "type": "event"
    },
    {
      "anonymous": false,
      "inputs": [
        {
          "indexed": true,
          "internalType": "address",
          "name": "owner",
          "type": "address"
        },
        {
          "indexed": true,
          "internalType": "address",
          "name": "operator",
          "type": "address"
        },
        {
          "indexed": false,
          "internalType": "bool",
          "name": "approved",
          "type": "bool"
        }
      ],
      "name": "ApprovalForAll",
      "type": "event"
    },
    {
      "anonymous": false,
      "inputs": [
        {
          "indexed": false,
          "internalType": "uint256",
          "name": "itemId",
          "type": "uint256"
        }
      ],
      "name": "Create",
      "type": "event"
    },
    {
      "anonymous": false,
      "inputs": [
        {
          "indexed": false,
          "internalType": "uint256",
          "name": "itemId",
          "type": "uint256"
        },
        {
          "indexed": false,
          "internalType": "uint256",
          "name": "day",
          "type": "uint256"
        },
        {
          "indexed": false,
          "internalType": "uint256",
          "name": "price",
          "type": "uint256"
        }
      ],
      "name": "Offer",
      "type": "event"
    },
    {
      "anonymous": false,
      "inputs": [
        {
          "indexed": false,
          "internalType": "uint256",
          "name": "itemId",
          "type": "uint256"
        }
      ],
      "name": "Rent",
      "type": "event"
    },
    {
      "anonymous": false,
      "inputs": [
        {
          "indexed": true,
          "internalType": "address",
          "name": "from",
          "type": "address"
        },
        {
          "indexed": true,
          "internalType": "address",
          "name": "to",
          "type": "address"
        },
        {
          "indexed": true,
          "internalType": "uint256",
          "name": "tokenId",
          "type": "uint256"
        }
      ],
      "name": "Transfer",
      "type": "event"
    },
    {
      "anonymous": false,
      "inputs": [
        {
          "indexed": false,
          "internalType": "uint256",
          "name": "itemId",
          "type": "uint256"
        },
        {
          "indexed": false,
          "internalType": "uint256",
          "name": "day",
          "type": "uint256"
        },
        {
          "indexed": false,
          "internalType": "uint256",
          "name": "price",
          "type": "uint256"
        }
      ],
      "name": "Upgrade",
      "type": "event"
    },
    {
      "inputs": [
        {
          "internalType": "address",
          "name": "to",
          "type": "address"
        },
        {
          "internalType": "uint256",
          "name": "tokenId",
          "type": "uint256"
        }
      ],
      "name": "approve",
      "outputs": [],
      "stateMutability": "nonpayable",
      "type": "function"
    },
    {
      "inputs": [
        {
          "internalType": "address",
          "name": "owner",
          "type": "address"
        }
      ],
      "name": "balanceOf",
      "outputs": [
        {
          "internalType": "uint256",
          "name": "",
          "type": "uint256"
        }
      ],
      "stateMutability": "view",
      "type": "function",
      "constant": true
    },
    {
      "inputs": [
        {
          "internalType": "uint256",
          "name": "tokenId",
          "type": "uint256"
        }
      ],
      "name": "getApproved",
      "outputs": [
        {
          "internalType": "address",
          "name": "",
          "type": "address"
        }
      ],
      "stateMutability": "view",
      "type": "function",
      "constant": true
    },
    {
      "inputs": [
        {
          "internalType": "address",
          "name": "owner",
          "type": "address"
        },
        {
          "internalType": "address",
          "name": "operator",
          "type": "address"
        }
      ],
      "name": "isApprovedForAll",
      "outputs": [
        {
          "internalType": "bool",
          "name": "",
          "type": "bool"
        }
      ],
      "stateMutability": "view",
      "type": "function",
      "constant": true
    },
    {
      "inputs": [],
      "name": "name",
      "outputs": [
        {
          "internalType": "string",
          "name": "",
          "type": "string"
        }
      ],
      "stateMutability": "view",
      "type": "function",
      "constant": true
    },
    {
      "inputs": [
        {
          "internalType": "uint256",
          "name": "tokenId",
          "type": "uint256"
        }
      ],
      "name": "ownerOf",
      "outputs": [
        {
          "internalType": "address",
          "name": "",
          "type": "address"
        }
      ],
      "stateMutability": "view",
      "type": "function",
      "constant": true
    },
    {
      "inputs": [
        {
          "internalType": "address",
          "name": "from",
          "type": "address"
        },
        {
          "internalType": "address",
          "name": "to",
          "type": "address"
        },
        {
          "internalType": "uint256",
          "name": "tokenId",
          "type": "uint256"
        }
      ],
      "name": "safeTransferFrom",
      "outputs": [],
      "stateMutability": "nonpayable",
      "type": "function"
    },
    {
      "inputs": [
        {
          "internalType": "address",
          "name": "from",
          "type": "address"
        },
        {
          "internalType": "address",
          "name": "to",
          "type": "address"
        },
        {
          "internalType": "uint256",
          "name": "tokenId",
          "type": "uint256"
        },
        {
          "internalType": "bytes",
          "name": "_data",
          "type": "bytes"
        }
      ],
      "name": "safeTransferFrom",
      "outputs": [],
      "stateMutability": "nonpayable",
      "type": "function"
    },
    {
      "inputs": [
        {
          "internalType": "address",
          "name": "operator",
          "type": "address"
        },
        {
          "internalType": "bool",
          "name": "approved",
          "type": "bool"
        }
      ],
      "name": "setApprovalForAll",
      "outputs": [],
      "stateMutability": "nonpayable",
      "type": "function"
    },
    {
      "inputs": [
        {
          "internalType": "bytes4",
          "name": "interfaceId",
          "type": "bytes4"
        }
      ],
      "name": "supportsInterface",
      "outputs": [
        {
          "internalType": "bool",
          "name": "",
          "type": "bool"
        }
      ],
      "stateMutability": "view",
      "type": "function",
      "constant": true
    },
    {
      "inputs": [],
      "name": "symbol",
      "outputs": [
        {
          "internalType": "string",
          "name": "",
          "type": "string"
        }
      ],
      "stateMutability": "view",
      "type": "function",
      "constant": true
    },
    {
      "inputs": [
        {
          "internalType": "uint256",
          "name": "tokenId",
          "type": "uint256"
        }
      ],
      "name": "tokenURI",
      "outputs": [
        {
          "internalType": "string",
          "name": "",
          "type": "string"
        }
      ],
      "stateMutability": "view",
      "type": "function",
      "constant": true
    },
    {
      "inputs": [
        {
          "internalType": "address",
          "name": "from",
          "type": "address"
        },
        {
          "internalType": "address",
          "name": "to",
          "type": "address"
        },
        {
          "internalType": "uint256",
          "name": "tokenId",
          "type": "uint256"
        }
      ],
      "name": "transferFrom",
      "outputs": [],
      "stateMutability": "nonpayable",
      "type": "function"
    },
    {
      "inputs": [
        {
          "internalType": "string",
          "name": "tokenURI",
          "type": "string"
        }
      ],
      "name": "createPass",
      "outputs": [
        {
          "internalType": "uint256",
          "name": "newItemId",
          "type": "uint256"
        }
      ],
      "stateMutability": "nonpayable",
      "type": "function"
    },
    {
      "inputs": [
        {
          "internalType": "uint256",
          "name": "itemId",
          "type": "uint256"
        },
        {
          "internalType": "string",
          "name": "tokenURI",
          "type": "string"
        }
      ],
      "name": "changeTokenURI",
      "outputs": [],
      "stateMutability": "nonpayable",
      "type": "function"
    },
    {
      "inputs": [
        {
          "internalType": "uint256",
          "name": "itemId",
          "type": "uint256"
        },
        {
          "internalType": "uint256",
          "name": "_day",
          "type": "uint256"
        },
        {
          "internalType": "uint256",
          "name": "_price",
          "type": "uint256"
        }
      ],
      "name": "setOffer",
      "outputs": [],
      "stateMutability": "nonpayable",
      "type": "function"
    },
    {
      "inputs": [
        {
          "internalType": "uint256",
          "name": "itemId",
          "type": "uint256"
        },
        {
          "internalType": "uint256",
          "name": "_day",
          "type": "uint256"
        },
        {
          "internalType": "uint256",
          "name": "_price",
          "type": "uint256"
        }
      ],
      "name": "upgradeOffer",
      "outputs": [],
      "stateMutability": "nonpayable",
      "type": "function"
    },
    {
      "inputs": [
        {
          "internalType": "uint256",
          "name": "itemId",
          "type": "uint256"
        }
      ],
      "name": "removeOffer",
      "outputs": [],
      "stateMutability": "nonpayable",
      "type": "function"
    },
    {
      "inputs": [
        {
          "internalType": "uint256",
          "name": "itemId",
          "type": "uint256"
        }
      ],
      "name": "retrievePass",
      "outputs": [],
      "stateMutability": "nonpayable",
      "type": "function"
    },
    {
      "inputs": [
        {
          "internalType": "uint256",
          "name": "itemId",
          "type": "uint256"
        }
      ],
      "name": "rentPass",
      "outputs": [],
      "stateMutability": "payable",
      "type": "function",
      "payable": true
    },
    {
      "inputs": [],
      "name": "withdrawEarn",
      "outputs": [],
      "stateMutability": "nonpayable",
      "type": "function"
    },
    {
      "inputs": [
        {
          "internalType": "uint256",
          "name": "itemId",
          "type": "uint256"
        }
      ],
      "name": "getDetails",
      "outputs": [
        {
          "internalType": "address",
          "name": "_consumer",
          "type": "address"
        },
        {
          "internalType": "uint256",
          "name": "_status",
          "type": "uint256"
        },
        {
          "internalType": "uint256",
          "name": "_day",
          "type": "uint256"
        },
        {
          "internalType": "uint256",
          "name": "_startDay",
          "type": "uint256"
        },
        {
          "internalType": "uint256",
          "name": "_price",
          "type": "uint256"
        }
      ],
      "stateMutability": "view",
      "type": "function",
      "constant": true
    },
    {
      "inputs": [
        {
          "internalType": "uint256",
          "name": "itemId",
          "type": "uint256"
        }
      ],
      "name": "isConsumer",
      "outputs": [
        {
          "internalType": "bool",
          "name": "",
          "type": "bool"
        }
      ],
      "stateMutability": "view",
      "type": "function",
      "constant": true
    }
  ],
  "bytecode": "0x60806040523480156200001157600080fd5b506040518060400160405280600981526020017f50617373546f6b656e00000000000000000000000000000000000000000000008152506040518060400160405280600481526020017f5041535300000000000000000000000000000000000000000000000000000000815250816000908051906020019062000096929190620000b8565b508060019080519060200190620000af929190620000b8565b505050620001cd565b828054620000c69062000168565b90600052602060002090601f016020900481019282620000ea576000855562000136565b82601f106200010557805160ff191683800117855562000136565b8280016001018555821562000136579182015b828111156200013557825182559160200191906001019062000118565b5b50905062000145919062000149565b5090565b5b80821115620001645760008160009055506001016200014a565b5090565b600060028204905060018216806200018157607f821691505b602082108114156200019857620001976200019e565b5b50919050565b7f4e487b7100000000000000000000000000000000000000000000000000000000600052602260045260246000fd5b61469d80620001dd6000396000f3fe6080604052600436106101405760003560e01c806370a08231116100b6578063ad19d0fb1161006f578063ad19d0fb14610447578063b88d4fde14610484578063b93a89f7146104ad578063c87b56dd146104ee578063e985e9c51461052b578063f50e15c41461056857610140565b806370a08231146103485780637fb3a9a21461038557806395a0f9c7146103ae57806395d89b41146103d7578063a22cb46514610402578063a422b6401461042b57610140565b8063210d028511610108578063210d02851461022a57806323b872dd1461025357806337c982641461027c57806342842e0e146102b95780635a525d83146102e25780636352211e1461030b57610140565b806301ffc9a71461014557806306fdde0314610182578063081812fc146101ad578063095ea7b3146101ea5780631b2837e414610213575b600080fd5b34801561015157600080fd5b5061016c6004803603810190610167919061313f565b610591565b6040516101799190613e19565b60405180910390f35b34801561018e57600080fd5b50610197610673565b6040516101a49190613e34565b60405180910390f35b3480156101b957600080fd5b506101d460048036038101906101cf91906131d2565b610705565b6040516101e19190613d5f565b60405180910390f35b3480156101f657600080fd5b50610211600480360381019061020c9190613103565b61078a565b005b34801561021f57600080fd5b506102286108a2565b005b34801561023657600080fd5b50610251600480360381019061024c91906131d2565b610a5d565b005b34801561025f57600080fd5b5061027a60048036038101906102759190612ffd565b610ced565b005b34801561028857600080fd5b506102a3600480360381019061029e91906131d2565b610d4d565b6040516102b09190613e19565b60405180910390f35b3480156102c557600080fd5b506102e060048036038101906102db9190612ffd565b610ea4565b005b3480156102ee57600080fd5b506103096004803603810190610304919061324f565b610ec4565b005b34801561031757600080fd5b50610332600480360381019061032d91906131d2565b611140565b60405161033f9190613d5f565b60405180910390f35b34801561035457600080fd5b5061036f600480360381019061036a9190612f98565b6111f2565b60405161037c9190614196565b60405180910390f35b34801561039157600080fd5b506103ac60048036038101906103a791906131fb565b6112aa565b005b3480156103ba57600080fd5b506103d560048036038101906103d091906131d2565b611330565b005b3480156103e357600080fd5b506103ec611539565b6040516103f99190613e34565b60405180910390f35b34801561040e57600080fd5b50610429600480360381019061042491906130c7565b6115cb565b005b610445600480360381019061044091906131d2565b61174c565b005b34801561045357600080fd5b5061046e60048036038101906104699190613191565b611a3a565b60405161047b9190614196565b60405180910390f35b34801561049057600080fd5b506104ab60048036038101906104a6919061304c565b611bf3565b005b3480156104b957600080fd5b506104d460048036038101906104cf91906131d2565b611c55565b6040516104e5959493929190613dc6565b60405180910390f35b3480156104fa57600080fd5b50610515600480360381019061051091906131d2565b611d99565b6040516105229190613e34565b60405180910390f35b34801561053757600080fd5b50610552600480360381019061054d9190612fc1565b611eeb565b60405161055f9190613e19565b60405180910390f35b34801561057457600080fd5b5061058f600480360381019061058a919061324f565b611f7f565b005b60007f80ac58cd000000000000000000000000000000000000000000000000000000007bffffffffffffffffffffffffffffffffffffffffffffffffffffffff1916827bffffffffffffffffffffffffffffffffffffffffffffffffffffffff1916148061065c57507f5b5e139f000000000000000000000000000000000000000000000000000000007bffffffffffffffffffffffffffffffffffffffffffffffffffffffff1916827bffffffffffffffffffffffffffffffffffffffffffffffffffffffff1916145b8061066c575061066b82612196565b5b9050919050565b60606000805461068290614492565b80601f01602080910402602001604051908101604052809291908181526020018280546106ae90614492565b80156106fb5780601f106106d0576101008083540402835291602001916106fb565b820191906000526020600020905b8154815290600101906020018083116106de57829003601f168201915b5050505050905090565b600061071082612200565b61074f576040517f08c379a000000000000000000000000000000000000000000000000000000000815260040161074690614056565b60405180910390fd5b6004600083815260200190815260200160002060009054906101000a900473ffffffffffffffffffffffffffffffffffffffff169050919050565b600061079582611140565b90508073ffffffffffffffffffffffffffffffffffffffff168373ffffffffffffffffffffffffffffffffffffffff161415610806576040517f08c379a00000000000000000000000000000000000000000000000000000000081526004016107fd906140f6565b60405180910390fd5b8073ffffffffffffffffffffffffffffffffffffffff1661082561226c565b73ffffffffffffffffffffffffffffffffffffffff16148061085457506108538161084e61226c565b611eeb565b5b610893576040517f08c379a000000000000000000000000000000000000000000000000000000000815260040161088a90613f36565b60405180910390fd5b61089d8383612274565b505050565b6000600960003373ffffffffffffffffffffffffffffffffffffffff1673ffffffffffffffffffffffffffffffffffffffff1681526020019081526020016000205411610924576040517f08c379a000000000000000000000000000000000000000000000000000000000815260040161091b90613fd6565b60405180910390fd5b6000600960003373ffffffffffffffffffffffffffffffffffffffff1673ffffffffffffffffffffffffffffffffffffffff1681526020019081526020016000205490506000600960003373ffffffffffffffffffffffffffffffffffffffff1673ffffffffffffffffffffffffffffffffffffffff1681526020019081526020016000208190555060003373ffffffffffffffffffffffffffffffffffffffff16826040516109d390613d4a565b60006040518083038185875af1925050503d8060008114610a10576040519150601f19603f3d011682016040523d82523d6000602084013e610a15565b606091505b5050905080610a59576040517f08c379a0000000000000000000000000000000000000000000000000000000008152600401610a5090613e96565b60405180910390fd5b5050565b8060011515610a6b82612200565b151514610aad576040517f08c379a0000000000000000000000000000000000000000000000000000000008152600401610aa490614156565b60405180910390fd5b81610ab781611140565b73ffffffffffffffffffffffffffffffffffffffff163373ffffffffffffffffffffffffffffffffffffffff1614610b24576040517f08c379a0000000000000000000000000000000000000000000000000000000008152600401610b1b90614176565b60405180910390fd5b826008600082815260200190815260200160002060000160149054906101000a900460ff166002811115610b81577f4e487b7100000000000000000000000000000000000000000000000000000000600052602160045260246000fd5b600280811115610bba577f4e487b7100000000000000000000000000000000000000000000000000000000600052602160045260246000fd5b14610bfa576040517f08c379a0000000000000000000000000000000000000000000000000000000008152600401610bf190613f56565b60405180910390fd5b8360016008600083815260200190815260200160002060010154610c1e919061434e565b6008600083815260200190815260200160002060020154610c3f91906142c7565b421015610c81576040517f08c379a0000000000000000000000000000000000000000000000000000000008152600401610c7890614116565b60405180910390fd5b60006008600087815260200190815260200160002060000160146101000a81548160ff02191690836002811115610ce1577f4e487b7100000000000000000000000000000000000000000000000000000000600052602160045260246000fd5b02179055505050505050565b610cfe610cf861226c565b8261232d565b610d3d576040517f08c379a0000000000000000000000000000000000000000000000000000000008152600401610d3490614136565b60405180910390fd5b610d4883838361240b565b505050565b60008160011515610d5d82612200565b151514610d9f576040517f08c379a0000000000000000000000000000000000000000000000000000000008152600401610d9690614156565b60405180910390fd5b8260016008600083815260200190815260200160002060010154610dc3919061434e565b6008600083815260200190815260200160002060020154610de491906142c7565b4210610e25576040517f08c379a0000000000000000000000000000000000000000000000000000000008152600401610e1c906140d6565b60405180910390fd5b6008600085815260200190815260200160002060000160009054906101000a900473ffffffffffffffffffffffffffffffffffffffff1673ffffffffffffffffffffffffffffffffffffffff163373ffffffffffffffffffffffffffffffffffffffff161415610e985760019250610e9d565b600092505b5050919050565b610ebf83838360405180602001604052806000815250611bf3565b505050565b8260011515610ed282612200565b151514610f14576040517f08c379a0000000000000000000000000000000000000000000000000000000008152600401610f0b90614156565b60405180910390fd5b83610f1e81611140565b73ffffffffffffffffffffffffffffffffffffffff163373ffffffffffffffffffffffffffffffffffffffff1614610f8b576040517f08c379a0000000000000000000000000000000000000000000000000000000008152600401610f8290614176565b60405180910390fd5b846008600082815260200190815260200160002060000160149054906101000a900460ff166002811115610fe8577f4e487b7100000000000000000000000000000000000000000000000000000000600052602160045260246000fd5b60006002811115611022577f4e487b7100000000000000000000000000000000000000000000000000000000600052602160045260246000fd5b14611062576040517f08c379a000000000000000000000000000000000000000000000000000000000815260040161105990614076565b60405180910390fd5b60016008600088815260200190815260200160002060000160146101000a81548160ff021916908360028111156110c2577f4e487b7100000000000000000000000000000000000000000000000000000000600052602160045260246000fd5b02179055508460086000888152602001908152602001600020600101819055508360086000888152602001908152602001600020600301819055507ff700cc6725b0720dfcf4f8623d7f0ca5751055e96314be62e4b63b6083372ab5868686604051611130939291906141b1565b60405180910390a1505050505050565b6000806002600084815260200190815260200160002060009054906101000a900473ffffffffffffffffffffffffffffffffffffffff169050600073ffffffffffffffffffffffffffffffffffffffff168173ffffffffffffffffffffffffffffffffffffffff1614156111e9576040517f08c379a00000000000000000000000000000000000000000000000000000000081526004016111e090613f96565b60405180910390fd5b80915050919050565b60008073ffffffffffffffffffffffffffffffffffffffff168273ffffffffffffffffffffffffffffffffffffffff161415611263576040517f08c379a000000000000000000000000000000000000000000000000000000000815260040161125a90613f76565b60405180910390fd5b600360008373ffffffffffffffffffffffffffffffffffffffff1673ffffffffffffffffffffffffffffffffffffffff168152602001908152602001600020549050919050565b816112b481611140565b73ffffffffffffffffffffffffffffffffffffffff163373ffffffffffffffffffffffffffffffffffffffff1614611321576040517f08c379a000000000000000000000000000000000000000000000000000000000815260040161131890614176565b60405180910390fd5b61132b8383612667565b505050565b806001151561133e82612200565b151514611380576040517f08c379a000000000000000000000000000000000000000000000000000000000815260040161137790614156565b60405180910390fd5b8161138a81611140565b73ffffffffffffffffffffffffffffffffffffffff163373ffffffffffffffffffffffffffffffffffffffff16146113f7576040517f08c379a00000000000000000000000000000000000000000000000000000000081526004016113ee90614176565b60405180910390fd5b826008600082815260200190815260200160002060000160149054906101000a900460ff166002811115611454577f4e487b7100000000000000000000000000000000000000000000000000000000600052602160045260246000fd5b6001600281111561148e577f4e487b7100000000000000000000000000000000000000000000000000000000600052602160045260246000fd5b146114ce576040517f08c379a00000000000000000000000000000000000000000000000000000000081526004016114c590613ed6565b60405180910390fd5b60006008600086815260200190815260200160002060000160146101000a81548160ff0219169083600281111561152e577f4e487b7100000000000000000000000000000000000000000000000000000000600052602160045260246000fd5b021790555050505050565b60606001805461154890614492565b80601f016020809104026020016040519081016040528092919081815260200182805461157490614492565b80156115c15780601f10611596576101008083540402835291602001916115c1565b820191906000526020600020905b8154815290600101906020018083116115a457829003601f168201915b5050505050905090565b6115d361226c565b73ffffffffffffffffffffffffffffffffffffffff168273ffffffffffffffffffffffffffffffffffffffff161415611641576040517f08c379a000000000000000000000000000000000000000000000000000000000815260040161163890613ef6565b60405180910390fd5b806005600061164e61226c565b73ffffffffffffffffffffffffffffffffffffffff1673ffffffffffffffffffffffffffffffffffffffff16815260200190815260200160002060008473ffffffffffffffffffffffffffffffffffffffff1673ffffffffffffffffffffffffffffffffffffffff16815260200190815260200160002060006101000a81548160ff0219169083151502179055508173ffffffffffffffffffffffffffffffffffffffff166116fb61226c565b73ffffffffffffffffffffffffffffffffffffffff167f17307eab39ab6107e8899845ad3d59bd9653f200f220920489ca2b5937696c31836040516117409190613e19565b60405180910390a35050565b806001151561175a82612200565b15151461179c576040517f08c379a000000000000000000000000000000000000000000000000000000000815260040161179390614156565b60405180910390fd5b816008600082815260200190815260200160002060000160149054906101000a900460ff1660028111156117f9577f4e487b7100000000000000000000000000000000000000000000000000000000600052602160045260246000fd5b60016002811115611833577f4e487b7100000000000000000000000000000000000000000000000000000000600052602160045260246000fd5b14611873576040517f08c379a000000000000000000000000000000000000000000000000000000000815260040161186a90613ed6565b60405180910390fd5b60026008600085815260200190815260200160002060000160146101000a81548160ff021916908360028111156118d3577f4e487b7100000000000000000000000000000000000000000000000000000000600052602160045260246000fd5b0217905550336008600085815260200190815260200160002060000160006101000a81548173ffffffffffffffffffffffffffffffffffffffff021916908373ffffffffffffffffffffffffffffffffffffffff160217905550426008600085815260200190815260200160002060020181905550346009600061195686611140565b73ffffffffffffffffffffffffffffffffffffffff1673ffffffffffffffffffffffffffffffffffffffff168152602001908152602001600020600082825461199f91906142c7565b92505081905550600860008481526020019081526020016000206003015434146119fe576040517f08c379a00000000000000000000000000000000000000000000000000000000081526004016119f590614016565b60405180910390fd5b7f77ff0cff82a4cb1bcd7cbe55b594b3e2a5ec3867766f906dfbb4f21108f4c67183604051611a2d9190614196565b60405180910390a1505050565b6000611a4660076126db565b611a5060076126f1565b9050611a5c33826126ff565b611a668183612667565b60006040518060a00160405280600073ffffffffffffffffffffffffffffffffffffffff16815260200160006002811115611aca577f4e487b7100000000000000000000000000000000000000000000000000000000600052602160045260246000fd5b8152602001600081526020016000815260200160008152509050806008600084815260200190815260200160002060008201518160000160006101000a81548173ffffffffffffffffffffffffffffffffffffffff021916908373ffffffffffffffffffffffffffffffffffffffff16021790555060208201518160000160146101000a81548160ff02191690836002811115611b90577f4e487b7100000000000000000000000000000000000000000000000000000000600052602160045260246000fd5b02179055506040820151816001015560608201518160020155608082015181600301559050507f07eac9a0695a188fe9d6fd680bcbbbe39041fb114d5d7ac11252401391f7930782604051611be59190614196565b60405180910390a150919050565b611c04611bfe61226c565b8361232d565b611c43576040517f08c379a0000000000000000000000000000000000000000000000000000000008152600401611c3a90614136565b60405180910390fd5b611c4f8484848461271d565b50505050565b60008060008060008560011515611c6b82612200565b151514611cad576040517f08c379a0000000000000000000000000000000000000000000000000000000008152600401611ca490614156565b60405180910390fd5b6008600088815260200190815260200160002060000160009054906101000a900473ffffffffffffffffffffffffffffffffffffffff1695506008600088815260200190815260200160002060010154935060086000888152602001908152602001600020600201549250600860008881526020019081526020016000206003015491506008600088815260200190815260200160002060000160149054906101000a900460ff166002811115611d8d577f4e487b7100000000000000000000000000000000000000000000000000000000600052602160045260246000fd5b94505091939590929450565b6060611da482612200565b611de3576040517f08c379a0000000000000000000000000000000000000000000000000000000008152600401611dda90614036565b60405180910390fd5b6000600660008481526020019081526020016000208054611e0390614492565b80601f0160208091040260200160405190810160405280929190818152602001828054611e2f90614492565b8015611e7c5780601f10611e5157610100808354040283529160200191611e7c565b820191906000526020600020905b815481529060010190602001808311611e5f57829003601f168201915b505050505090506000611e8d612779565b9050600081511415611ea3578192505050611ee6565b600082511115611ed8578082604051602001611ec0929190613d26565b60405160208183030381529060405292505050611ee6565b611ee184612790565b925050505b919050565b6000600560008473ffffffffffffffffffffffffffffffffffffffff1673ffffffffffffffffffffffffffffffffffffffff16815260200190815260200160002060008373ffffffffffffffffffffffffffffffffffffffff1673ffffffffffffffffffffffffffffffffffffffff16815260200190815260200160002060009054906101000a900460ff16905092915050565b8260011515611f8d82612200565b151514611fcf576040517f08c379a0000000000000000000000000000000000000000000000000000000008152600401611fc690614156565b60405180910390fd5b83611fd981611140565b73ffffffffffffffffffffffffffffffffffffffff163373ffffffffffffffffffffffffffffffffffffffff1614612046576040517f08c379a000000000000000000000000000000000000000000000000000000000815260040161203d90614176565b60405180910390fd5b846008600082815260200190815260200160002060000160149054906101000a900460ff1660028111156120a3577f4e487b7100000000000000000000000000000000000000000000000000000000600052602160045260246000fd5b600160028111156120dd577f4e487b7100000000000000000000000000000000000000000000000000000000600052602160045260246000fd5b1461211d576040517f08c379a000000000000000000000000000000000000000000000000000000000815260040161211490613ed6565b60405180910390fd5b8460086000888152602001908152602001600020600101819055508360086000888152602001908152602001600020600301819055507fcd893c9768071a946e7cfbf126fee7bb123706941a9355f895f728f3d23650fc868686604051612186939291906141b1565b60405180910390a1505050505050565b60007f01ffc9a7000000000000000000000000000000000000000000000000000000007bffffffffffffffffffffffffffffffffffffffffffffffffffffffff1916827bffffffffffffffffffffffffffffffffffffffffffffffffffffffff1916149050919050565b60008073ffffffffffffffffffffffffffffffffffffffff166002600084815260200190815260200160002060009054906101000a900473ffffffffffffffffffffffffffffffffffffffff1673ffffffffffffffffffffffffffffffffffffffff1614159050919050565b600033905090565b816004600083815260200190815260200160002060006101000a81548173ffffffffffffffffffffffffffffffffffffffff021916908373ffffffffffffffffffffffffffffffffffffffff160217905550808273ffffffffffffffffffffffffffffffffffffffff166122e783611140565b73ffffffffffffffffffffffffffffffffffffffff167f8c5be1e5ebec7d5bd14f71427d1e84f3dd0314c0f7b2291e5b200ac8c7c3b92560405160405180910390a45050565b600061233882612200565b612377576040517f08c379a000000000000000000000000000000000000000000000000000000000815260040161236e90613f16565b60405180910390fd5b600061238283611140565b90508073ffffffffffffffffffffffffffffffffffffffff168473ffffffffffffffffffffffffffffffffffffffff1614806123f157508373ffffffffffffffffffffffffffffffffffffffff166123d984610705565b73ffffffffffffffffffffffffffffffffffffffff16145b8061240257506124018185611eeb565b5b91505092915050565b8273ffffffffffffffffffffffffffffffffffffffff1661242b82611140565b73ffffffffffffffffffffffffffffffffffffffff1614612481576040517f08c379a000000000000000000000000000000000000000000000000000000000815260040161247890614096565b60405180910390fd5b600073ffffffffffffffffffffffffffffffffffffffff168273ffffffffffffffffffffffffffffffffffffffff1614156124f1576040517f08c379a00000000000000000000000000000000000000000000000000000000081526004016124e890613eb6565b60405180910390fd5b6124fc838383612837565b612507600082612274565b6001600360008573ffffffffffffffffffffffffffffffffffffffff1673ffffffffffffffffffffffffffffffffffffffff168152602001908152602001600020600082825461255791906143a8565b925050819055506001600360008473ffffffffffffffffffffffffffffffffffffffff1673ffffffffffffffffffffffffffffffffffffffff16815260200190815260200160002060008282546125ae91906142c7565b92505081905550816002600083815260200190815260200160002060006101000a81548173ffffffffffffffffffffffffffffffffffffffff021916908373ffffffffffffffffffffffffffffffffffffffff160217905550808273ffffffffffffffffffffffffffffffffffffffff168473ffffffffffffffffffffffffffffffffffffffff167fddf252ad1be2c89b69c2b068fc378daa952ba7f163c4a11628f55a4df523b3ef60405160405180910390a4505050565b61267082612200565b6126af576040517f08c379a00000000000000000000000000000000000000000000000000000000081526004016126a690613fb6565b60405180910390fd5b806006600084815260200190815260200160002090805190602001906126d6929190612dbc565b505050565b6001816000016000828254019250508190555050565b600081600001549050919050565b61271982826040518060200160405280600081525061283c565b5050565b61272884848461240b565b61273484848484612897565b612773576040517f08c379a000000000000000000000000000000000000000000000000000000000815260040161276a90613e56565b60405180910390fd5b50505050565b606060405180602001604052806000815250905090565b606061279b82612200565b6127da576040517f08c379a00000000000000000000000000000000000000000000000000000000081526004016127d1906140b6565b60405180910390fd5b60006127e4612779565b90506000815111612804576040518060200160405280600081525061282f565b8061280e84612a2e565b60405160200161281f929190613d26565b6040516020818303038152906040525b915050919050565b505050565b6128468383612bdb565b6128536000848484612897565b612892576040517f08c379a000000000000000000000000000000000000000000000000000000000815260040161288990613e56565b60405180910390fd5b505050565b60006128b88473ffffffffffffffffffffffffffffffffffffffff16612da9565b15612a21578373ffffffffffffffffffffffffffffffffffffffff1663150b7a026128e161226c565b8786866040518563ffffffff1660e01b81526004016129039493929190613d7a565b602060405180830381600087803b15801561291d57600080fd5b505af192505050801561294e57506040513d601f19601f8201168201806040525081019061294b9190613168565b60015b6129d1573d806000811461297e576040519150601f19603f3d011682016040523d82523d6000602084013e612983565b606091505b506000815114156129c9576040517f08c379a00000000000000000000000000000000000000000000000000000000081526004016129c090613e56565b60405180910390fd5b805181602001fd5b63150b7a0260e01b7bffffffffffffffffffffffffffffffffffffffffffffffffffffffff1916817bffffffffffffffffffffffffffffffffffffffffffffffffffffffff191614915050612a26565b600190505b949350505050565b60606000821415612a76576040518060400160405280600181526020017f30000000000000000000000000000000000000000000000000000000000000008152509050612bd6565b600082905060005b60008214612aa8578080612a91906144c4565b915050600a82612aa1919061431d565b9150612a7e565b60008167ffffffffffffffff811115612aea577f4e487b7100000000000000000000000000000000000000000000000000000000600052604160045260246000fd5b6040519080825280601f01601f191660200182016040528015612b1c5781602001600182028036833780820191505090505b5090505b60008514612bcf57600182612b3591906143a8565b9150600a85612b44919061450d565b6030612b5091906142c7565b60f81b818381518110612b8c577f4e487b7100000000000000000000000000000000000000000000000000000000600052603260045260246000fd5b60200101907effffffffffffffffffffffffffffffffffffffffffffffffffffffffffffff1916908160001a905350600a85612bc8919061431d565b9450612b20565b8093505050505b919050565b600073ffffffffffffffffffffffffffffffffffffffff168273ffffffffffffffffffffffffffffffffffffffff161415612c4b576040517f08c379a0000000000000000000000000000000000000000000000000000000008152600401612c4290613ff6565b60405180910390fd5b612c5481612200565b15612c94576040517f08c379a0000000000000000000000000000000000000000000000000000000008152600401612c8b90613e76565b60405180910390fd5b612ca060008383612837565b6001600360008473ffffffffffffffffffffffffffffffffffffffff1673ffffffffffffffffffffffffffffffffffffffff1681526020019081526020016000206000828254612cf091906142c7565b92505081905550816002600083815260200190815260200160002060006101000a81548173ffffffffffffffffffffffffffffffffffffffff021916908373ffffffffffffffffffffffffffffffffffffffff160217905550808273ffffffffffffffffffffffffffffffffffffffff16600073ffffffffffffffffffffffffffffffffffffffff167fddf252ad1be2c89b69c2b068fc378daa952ba7f163c4a11628f55a4df523b3ef60405160405180910390a45050565b600080823b905060008111915050919050565b828054612dc890614492565b90600052602060002090601f016020900481019282612dea5760008555612e31565b82601f10612e0357805160ff1916838001178555612e31565b82800160010185558215612e31579182015b82811115612e30578251825591602001919060010190612e15565b5b509050612e3e9190612e42565b5090565b5b80821115612e5b576000816000905550600101612e43565b5090565b6000612e72612e6d84614219565b6141e8565b905082815260208101848484011115612e8a57600080fd5b612e95848285614450565b509392505050565b6000612eb0612eab84614249565b6141e8565b905082815260208101848484011115612ec857600080fd5b612ed3848285614450565b509392505050565b600081359050612eea8161460b565b92915050565b600081359050612eff81614622565b92915050565b600081359050612f1481614639565b92915050565b600081519050612f2981614639565b92915050565b600082601f830112612f4057600080fd5b8135612f50848260208601612e5f565b91505092915050565b600082601f830112612f6a57600080fd5b8135612f7a848260208601612e9d565b91505092915050565b600081359050612f9281614650565b92915050565b600060208284031215612faa57600080fd5b6000612fb884828501612edb565b91505092915050565b60008060408385031215612fd457600080fd5b6000612fe285828601612edb565b9250506020612ff385828601612edb565b9150509250929050565b60008060006060848603121561301257600080fd5b600061302086828701612edb565b935050602061303186828701612edb565b925050604061304286828701612f83565b9150509250925092565b6000806000806080858703121561306257600080fd5b600061307087828801612edb565b945050602061308187828801612edb565b935050604061309287828801612f83565b925050606085013567ffffffffffffffff8111156130af57600080fd5b6130bb87828801612f2f565b91505092959194509250565b600080604083850312156130da57600080fd5b60006130e885828601612edb565b92505060206130f985828601612ef0565b9150509250929050565b6000806040838503121561311657600080fd5b600061312485828601612edb565b925050602061313585828601612f83565b9150509250929050565b60006020828403121561315157600080fd5b600061315f84828501612f05565b91505092915050565b60006020828403121561317a57600080fd5b600061318884828501612f1a565b91505092915050565b6000602082840312156131a357600080fd5b600082013567ffffffffffffffff8111156131bd57600080fd5b6131c984828501612f59565b91505092915050565b6000602082840312156131e457600080fd5b60006131f284828501612f83565b91505092915050565b6000806040838503121561320e57600080fd5b600061321c85828601612f83565b925050602083013567ffffffffffffffff81111561323957600080fd5b61324585828601612f59565b9150509250929050565b60008060006060848603121561326457600080fd5b600061327286828701612f83565b935050602061328386828701612f83565b925050604061329486828701612f83565b9150509250925092565b6132a7816143dc565b82525050565b6132b6816143ee565b82525050565b60006132c782614279565b6132d1818561428f565b93506132e181856020860161445f565b6132ea816145fa565b840191505092915050565b600061330082614284565b61330a81856142ab565b935061331a81856020860161445f565b613323816145fa565b840191505092915050565b600061333982614284565b61334381856142bc565b935061335381856020860161445f565b80840191505092915050565b600061336c6032836142ab565b91507f4552433732313a207472616e7366657220746f206e6f6e20455243373231526560008301527f63656976657220696d706c656d656e74657200000000000000000000000000006020830152604082019050919050565b60006133d2601c836142ab565b91507f4552433732313a20746f6b656e20616c7265616479206d696e746564000000006000830152602082019050919050565b60006134126014836142ab565b91507f4661696c656420746f2073656e642045746865720000000000000000000000006000830152602082019050919050565b60006134526024836142ab565b91507f4552433732313a207472616e7366657220746f20746865207a65726f2061646460008301527f72657373000000000000000000000000000000000000000000000000000000006020830152604082019050919050565b60006134b8603a836142ab565b91507f4f6e6c79206966207061737320697320696e2073616c6520737461747573207960008301527f6f752063616e2063616c6c20746869732066756e6374696f6e2e0000000000006020830152604082019050919050565b600061351e6019836142ab565b91507f4552433732313a20617070726f766520746f2063616c6c6572000000000000006000830152602082019050919050565b600061355e602c836142ab565b91507f4552433732313a206f70657261746f7220717565727920666f72206e6f6e657860008301527f697374656e7420746f6b656e00000000000000000000000000000000000000006020830152604082019050919050565b60006135c46038836142ab565b91507f4552433732313a20617070726f76652063616c6c6572206973206e6f74206f7760008301527f6e6572206e6f7220617070726f76656420666f7220616c6c00000000000000006020830152604082019050919050565b600061362a603a836142ab565b91507f4f6e6c79206966207061737320697320696e2072656e7420737461747573207960008301527f6f752063616e2063616c6c20746869732066756e6374696f6e2e0000000000006020830152604082019050919050565b6000613690602a836142ab565b91507f4552433732313a2062616c616e636520717565727920666f7220746865207a6560008301527f726f2061646472657373000000000000000000000000000000000000000000006020830152604082019050919050565b60006136f66029836142ab565b91507f4552433732313a206f776e657220717565727920666f72206e6f6e657869737460008301527f656e7420746f6b656e00000000000000000000000000000000000000000000006020830152604082019050919050565b600061375c602e836142ab565b91507f45524337323155524953746f726167653a2055524920736574206f66206e6f6e60008301527f6578697374656e7420746f6b656e0000000000000000000000000000000000006020830152604082019050919050565b60006137c2603b836142ab565b91507f4f6e6c7920696620796f752068617665206561726e20736f6d6520657468657260008301527f20796f752063616e2063616c6c20746869732066756e6374696f6e00000000006020830152604082019050919050565b60006138286020836142ab565b91507f4552433732313a206d696e7420746f20746865207a65726f20616464726573736000830152602082019050919050565b60006138686021836142ab565b91507f596f752073686f756c642073656e64207468652065786163746c79207072696360008301527f65000000000000000000000000000000000000000000000000000000000000006020830152604082019050919050565b60006138ce6031836142ab565b91507f45524337323155524953746f726167653a2055524920717565727920666f722060008301527f6e6f6e6578697374656e7420746f6b656e0000000000000000000000000000006020830152604082019050919050565b6000613934602c836142ab565b91507f4552433732313a20617070726f76656420717565727920666f72206e6f6e657860008301527f697374656e7420746f6b656e00000000000000000000000000000000000000006020830152604082019050919050565b600061399a603e836142ab565b91507f4f6e6c792069662070617373206973206e6f7420696e2073616c65207374617460008301527f757320796f752063616e2063616c6c20746869732066756e6374696f6e2e00006020830152604082019050919050565b6000613a006029836142ab565b91507f4552433732313a207472616e73666572206f6620746f6b656e2074686174206960008301527f73206e6f74206f776e00000000000000000000000000000000000000000000006020830152604082019050919050565b6000613a66602f836142ab565b91507f4552433732314d657461646174613a2055524920717565727920666f72206e6f60008301527f6e6578697374656e7420746f6b656e00000000000000000000000000000000006020830152604082019050919050565b6000613acc603a836142ab565b91507f4f6e6c792069662072656e74206973206e6f74207465726d696e61746564207960008301527f6f752063616e2063616c6c20746869732066756e6374696f6e2e0000000000006020830152604082019050919050565b6000613b326021836142ab565b91507f4552433732313a20617070726f76616c20746f2063757272656e74206f776e6560008301527f72000000000000000000000000000000000000000000000000000000000000006020830152604082019050919050565b6000613b986036836142ab565b91507f4f6e6c792069662072656e74206973207465726d696e6174656420796f75206360008301527f616e2063616c6c20746869732066756e6374696f6e2e000000000000000000006020830152604082019050919050565b6000613bfe6000836142a0565b9150600082019050919050565b6000613c186031836142ab565b91507f4552433732313a207472616e736665722063616c6c6572206973206e6f74206f60008301527f776e6572206e6f7220617070726f7665640000000000000000000000000000006020830152604082019050919050565b6000613c7e6014836142ab565b91507f546f6b656e4964206973206e6f742076616c69640000000000000000000000006000830152602082019050919050565b6000613cbe6024836142ab565b91507f4f6e6c792063726561746f722063616e2063616c6c20746869732066756e637460008301527f696f6e2e000000000000000000000000000000000000000000000000000000006020830152604082019050919050565b613d2081614446565b82525050565b6000613d32828561332e565b9150613d3e828461332e565b91508190509392505050565b6000613d5582613bf1565b9150819050919050565b6000602082019050613d74600083018461329e565b92915050565b6000608082019050613d8f600083018761329e565b613d9c602083018661329e565b613da96040830185613d17565b8181036060830152613dbb81846132bc565b905095945050505050565b600060a082019050613ddb600083018861329e565b613de86020830187613d17565b613df56040830186613d17565b613e026060830185613d17565b613e0f6080830184613d17565b9695505050505050565b6000602082019050613e2e60008301846132ad565b92915050565b60006020820190508181036000830152613e4e81846132f5565b905092915050565b60006020820190508181036000830152613e6f8161335f565b9050919050565b60006020820190508181036000830152613e8f816133c5565b9050919050565b60006020820190508181036000830152613eaf81613405565b9050919050565b60006020820190508181036000830152613ecf81613445565b9050919050565b60006020820190508181036000830152613eef816134ab565b9050919050565b60006020820190508181036000830152613f0f81613511565b9050919050565b60006020820190508181036000830152613f2f81613551565b9050919050565b60006020820190508181036000830152613f4f816135b7565b9050919050565b60006020820190508181036000830152613f6f8161361d565b9050919050565b60006020820190508181036000830152613f8f81613683565b9050919050565b60006020820190508181036000830152613faf816136e9565b9050919050565b60006020820190508181036000830152613fcf8161374f565b9050919050565b60006020820190508181036000830152613fef816137b5565b9050919050565b6000602082019050818103600083015261400f8161381b565b9050919050565b6000602082019050818103600083015261402f8161385b565b9050919050565b6000602082019050818103600083015261404f816138c1565b9050919050565b6000602082019050818103600083015261406f81613927565b9050919050565b6000602082019050818103600083015261408f8161398d565b9050919050565b600060208201905081810360008301526140af816139f3565b9050919050565b600060208201905081810360008301526140cf81613a59565b9050919050565b600060208201905081810360008301526140ef81613abf565b9050919050565b6000602082019050818103600083015261410f81613b25565b9050919050565b6000602082019050818103600083015261412f81613b8b565b9050919050565b6000602082019050818103600083015261414f81613c0b565b9050919050565b6000602082019050818103600083015261416f81613c71565b9050919050565b6000602082019050818103600083015261418f81613cb1565b9050919050565b60006020820190506141ab6000830184613d17565b92915050565b60006060820190506141c66000830186613d17565b6141d36020830185613d17565b6141e06040830184613d17565b949350505050565b6000604051905081810181811067ffffffffffffffff8211171561420f5761420e6145cb565b5b8060405250919050565b600067ffffffffffffffff821115614234576142336145cb565b5b601f19601f8301169050602081019050919050565b600067ffffffffffffffff821115614264576142636145cb565b5b601f19601f8301169050602081019050919050565b600081519050919050565b600081519050919050565b600082825260208201905092915050565b600081905092915050565b600082825260208201905092915050565b600081905092915050565b60006142d282614446565b91506142dd83614446565b9250827fffffffffffffffffffffffffffffffffffffffffffffffffffffffffffffffff038211156143125761431161453e565b5b828201905092915050565b600061432882614446565b915061433383614446565b9250826143435761434261456d565b5b828204905092915050565b600061435982614446565b915061436483614446565b9250817fffffffffffffffffffffffffffffffffffffffffffffffffffffffffffffffff048311821515161561439d5761439c61453e565b5b828202905092915050565b60006143b382614446565b91506143be83614446565b9250828210156143d1576143d061453e565b5b828203905092915050565b60006143e782614426565b9050919050565b60008115159050919050565b60007fffffffff0000000000000000000000000000000000000000000000000000000082169050919050565b600073ffffffffffffffffffffffffffffffffffffffff82169050919050565b6000819050919050565b82818337600083830152505050565b60005b8381101561447d578082015181840152602081019050614462565b8381111561448c576000848401525b50505050565b600060028204905060018216806144aa57607f821691505b602082108114156144be576144bd61459c565b5b50919050565b60006144cf82614446565b91507fffffffffffffffffffffffffffffffffffffffffffffffffffffffffffffffff8214156145025761450161453e565b5b600182019050919050565b600061451882614446565b915061452383614446565b9250826145335761453261456d565b5b828206905092915050565b7f4e487b7100000000000000000000000000000000000000000000000000000000600052601160045260246000fd5b7f4e487b7100000000000000000000000000000000000000000000000000000000600052601260045260246000fd5b7f4e487b7100000000000000000000000000000000000000000000000000000000600052602260045260246000fd5b7f4e487b7100000000000000000000000000000000000000000000000000000000600052604160045260246000fd5b6000601f19601f8301169050919050565b614614816143dc565b811461461f57600080fd5b50565b61462b816143ee565b811461463657600080fd5b50565b614642816143fa565b811461464d57600080fd5b50565b61465981614446565b811461466457600080fd5b5056fea264697066735822122077b6e1624ea7de0e25d872a62987c3aa0c6a8eeacf55a3c1a18ca232bacb8fb864736f6c63430008000033",
  "immutableReferences": {},
  "source": "// SPDX-License-Identifier: MIT\r\n\r\n/// @title Custom token ERC721\r\n/// @author Federico Giannotti\r\n\r\npragma solidity ^0.8.0;\r\n\r\nimport \"@openzeppelin/contracts/token/ERC721/extensions/ERC721URIStorage.sol\";\r\nimport \"@openzeppelin/contracts/utils/Counters.sol\";\r\n\r\n/// @notice You can use this contract for only the most basic simulation\r\n\r\ncontract PassToken is ERC721URIStorage {\r\n\r\n    using Counters for Counters.Counter;\r\n\r\n    //Only increment, use for Id PASS token\r\n    Counters.Counter private _tokenIds;\r\n\r\n    //Status of the PASS\r\n    enum StatusPass {\r\n        NotSale,\r\n        Sale,\r\n        Rent\r\n    }\r\n\r\n    /** Data about the PASS\r\n        consumer: who rent the PASS\r\n        status: actual status of the PASS\r\n        day: duration of the rental offer\r\n        startDay: when consumer rent the PASS\r\n        price: cost for rent the PASS\r\n    **/\r\n    /// Important: the variable day is actually\r\n    /// used with the seconds, this was done for quicker verification.\r\n    struct Details {\r\n        address consumer;\r\n        StatusPass status;\r\n        uint day;\r\n        uint startDay;\r\n        uint price;\r\n    }\r\n\r\n    mapping (uint256 => Details) private Pass;\r\n\r\n    //Mapping between address and what they earn with rent their PASS\r\n    mapping (address => uint) private Earn;\r\n\r\n    constructor() ERC721 (\"PassToken\", \"PASS\") {}\r\n\r\n    /// @notice emit an event when a new token is created\r\n    /// @param itemId of the new token\r\n    event Create(uint itemId);\r\n    /// @notice emit an event when a new offert about token is set\r\n    /// @param itemId of the token, day duration of the offer, price of the offer\r\n    event Offer(uint itemId, uint day, uint price);\r\n    /// @notice emit an event when a upgrade about token offert is set\r\n    /// @param itemId of the token, day new duration of the offer, new price of the offer\r\n    event Upgrade(uint itemId, uint day, uint price);\r\n    /// @notice emit an event when a consumer rent a PASS\r\n    /// @param itemId of the PASS\r\n    event Rent(uint itemId);\r\n\r\n    /// @dev only the owner of the PASS can perform the function\r\n   /// @param itemId of the PASS\r\n    modifier onlyCreator(uint itemId) {\r\n        require(\r\n            msg.sender == ownerOf(itemId),\r\n            \"Only creator can call this function.\"\r\n        );\r\n        _;\r\n    }\r\n\r\n    /// @dev only if the pass is in rent status\r\n    /// @param itemId od the PASS\r\n    modifier onlyRent(uint itemId) {\r\n        require(\r\n            StatusPass.Rent == Pass[itemId].status,\r\n            \"Only if pass is in rent status you can call this function.\"\r\n        );\r\n        _;\r\n    }\r\n\r\n    /// @dev only if the pass is in sale status\r\n    /// @param itemId od the PASS\r\n    modifier onlySale(uint itemId) {\r\n        require(\r\n            StatusPass.Sale == Pass[itemId].status,\r\n            \"Only if pass is in sale status you can call this function.\"\r\n        );\r\n        _;\r\n    }\r\n\r\n    /// @dev only if the pass is in not sale status\r\n    /// @param itemId od the PASS\r\n    modifier onlyNotSale(uint itemId) {\r\n        require(\r\n            StatusPass.NotSale == Pass[itemId].status,\r\n            \"Only if pass is not in sale status you can call this function.\"\r\n        );\r\n        _;\r\n    }\r\n\r\n    ///@dev only if the rent is valid (PASS should be in rent status)\r\n    /// @param itemId od the PASS\r\n    modifier rentIsValid(uint itemId) {\r\n        require(\r\n            block.timestamp < Pass[itemId].startDay + (Pass[itemId].day * 1 seconds),\r\n            \"Only if rent is not terminated you can call this function.\"\r\n        );\r\n        _;\r\n    }\r\n\r\n    ///@dev only if the rent is not valid\r\n    /// @param itemId od the PASS\r\n    modifier rentIsNotValid(uint itemId) {\r\n        require(\r\n            block.timestamp >= Pass[itemId].startDay + (Pass[itemId].day * 1 seconds),\r\n            \"Only if rent is terminated you can call this function.\"\r\n        );\r\n        _;\r\n    }\r\n\r\n    /// @dev only if user has earn something with the rent of PASS\r\n    modifier enoughEarn() {\r\n        require(\r\n            Earn[msg.sender] > 0,\r\n            \"Only if you have earn some ether you can call this function\"\r\n        );\r\n        _;\r\n    }\r\n\r\n    /// @dev only if the PASS exist\r\n    /// @param itemId od the PASS\r\n    modifier tokenIdIsValid(uint itemId) {\r\n        require(\r\n            _exists(itemId) == true,\r\n            \"TokenId is not valid\"\r\n        );\r\n        _;\r\n    }\r\n\r\n /// @param tokenURI : uri of the PASS\r\n\r\n    function createPass(string memory tokenURI)\r\n        public\r\n        returns (uint256 newItemId)\r\n    {\r\n        _tokenIds.increment();\r\n\r\n        newItemId = _tokenIds.current();\r\n        _safeMint(msg.sender, newItemId);\r\n        _setTokenURI(newItemId, tokenURI);\r\n\r\n        Details memory detail = Details(address(0), StatusPass.NotSale, 0, 0, 0);\r\n        Pass[newItemId] = detail;\r\n        emit Create(newItemId);\r\n\r\n    }\r\n\r\n /// @param itemId : id of the PASS\r\n /// @param tokenURI : new uri of the PASS\r\n\r\n    function changeTokenURI(uint itemId, string memory tokenURI)\r\n        public\r\n        onlyCreator(itemId)\r\n     {\r\n         _setTokenURI(itemId, tokenURI);\r\n     }\r\n\r\n\r\n /// @param itemId : id of the PASS\r\n /// @param _day : duration of the offert\r\n /// @param _price : cost for rent the PASS\r\n\r\n    function setOffer(uint itemId, uint _day, uint _price)\r\n        public\r\n        tokenIdIsValid(itemId)\r\n        onlyCreator(itemId)\r\n        onlyNotSale(itemId)\r\n    {\r\n            Pass[itemId].status = StatusPass.Sale;\r\n            Pass[itemId].day = _day;\r\n            Pass[itemId].price = _price;\r\n            emit Offer(itemId, _day, _price);\r\n    }\r\n\r\n /// @param  itemId : id of the PASS\r\n /// @param  _day : new duration of the offert\r\n /// @param  _price : new cost for rent the PASS\r\n    function upgradeOffer(uint itemId, uint _day, uint _price)\r\n        public\r\n        tokenIdIsValid(itemId)\r\n        onlyCreator(itemId)\r\n        onlySale(itemId)\r\n    {\r\n            Pass[itemId].day = _day;\r\n            Pass[itemId].price = _price;\r\n            emit Upgrade(itemId, _day, _price);\r\n    }\r\n\r\n /// @param itemId : id of the PASS\r\n    function removeOffer(uint itemId)\r\n        public\r\n        tokenIdIsValid(itemId)\r\n        onlyCreator(itemId)\r\n        onlySale(itemId)\r\n    {\r\n            Pass[itemId].status = StatusPass.NotSale;\r\n    }\r\n\r\n /// @param itemId : id of the PASS\r\n    function retrievePass(uint itemId)\r\n        public\r\n        tokenIdIsValid(itemId)\r\n        onlyCreator(itemId)\r\n        onlyRent(itemId)\r\n        rentIsNotValid(itemId)\r\n    {\r\n        Pass[itemId].status = StatusPass.NotSale;\r\n    }\r\n\r\n /// @param itemId : id of the PASS\r\n    function rentPass(uint itemId)\r\n        public\r\n        payable\r\n        tokenIdIsValid(itemId)\r\n        onlySale(itemId)\r\n    {\r\n        Pass[itemId].status = StatusPass.Rent;\r\n        Pass[itemId].consumer = msg.sender;\r\n        Pass[itemId].startDay = block.timestamp;\r\n        Earn[ownerOf(itemId)] += msg.value;\r\n        require(msg.value == Pass[itemId].price, \"You should send the exactly price\");\r\n        emit Rent(itemId);\r\n    }\r\n\r\n     function withdrawEarn()\r\n        public\r\n        enoughEarn()\r\n    {\r\n        uint amount = Earn[msg.sender];\r\n        Earn[msg.sender] = 0;\r\n        (bool sent, ) = msg.sender.call{value: amount}(\"\");\r\n        require(sent, \"Failed to send Ether\");\r\n    }\r\n\r\n /// @param itemId : id of the PASS\r\n    function getDetails(uint itemId)\r\n        public\r\n        view\r\n        tokenIdIsValid(itemId)\r\n        returns (\r\n            address _consumer,\r\n            uint _status,\r\n            uint _day,\r\n            uint _startDay,\r\n            uint _price\r\n        )\r\n    {\r\n         _consumer = Pass[itemId].consumer;\r\n         _day = Pass[itemId].day;\r\n         _startDay = Pass[itemId].startDay;\r\n         _price = Pass[itemId].price;\r\n         _status = uint(Pass[itemId].status);\r\n    }\r\n\r\n /// @param itemId : id of the PASS\r\n    function isConsumer(uint itemId)\r\n        public\r\n        view\r\n        tokenIdIsValid(itemId)\r\n        rentIsValid(itemId)\r\n        returns (bool)\r\n    {\r\n            if(msg.sender == Pass[itemId].consumer) return true;\r\n            else return false;\r\n    }\r\n}\r\n",
  "sourcePath": "C:/Users/Federico Giannotti/github/PASStoken/contracts/PassToken.sol",
  "compiler": {
    "name": "solc",
    "version": "0.8.0+commit.c7dfd78e.Emscripten.clang"
  },
  "schemaVersion": "3.3.4",
  "updatedAt": "2021-04-22T16:46:08.557Z",
  "networkType": "ethereum",
  "devdoc": {
    "events": {
      "Create(uint256)": {
        "params": {
          "itemId": "of the new token"
        }
      },
      "Offer(uint256,uint256,uint256)": {
        "params": {
          "itemId": "of the token, day duration of the offer, price of the offer"
        }
      },
      "Rent(uint256)": {
        "params": {
          "itemId": "of the PASS"
        }
      },
      "Upgrade(uint256,uint256,uint256)": {
        "params": {
          "itemId": "of the token, day new duration of the offer, new price of the offer"
        }
      }
    },
    "kind": "dev",
    "methods": {
      "approve(address,uint256)": {
        "details": "See {IERC721-approve}."
      },
      "balanceOf(address)": {
        "details": "See {IERC721-balanceOf}."
      },
      "changeTokenURI(uint256,string)": {
        "params": {
          "itemId": ": id of the PASS",
          "tokenURI": ": new uri of the PASS"
        }
      },
      "createPass(string)": {
        "params": {
          "tokenURI": ": uri of the PASS"
        }
      },
      "getApproved(uint256)": {
        "details": "See {IERC721-getApproved}."
      },
      "getDetails(uint256)": {
        "params": {
          "itemId": ": id of the PASS"
        }
      },
      "isApprovedForAll(address,address)": {
        "details": "See {IERC721-isApprovedForAll}."
      },
      "isConsumer(uint256)": {
        "params": {
          "itemId": ": id of the PASS"
        }
      },
      "name()": {
        "details": "See {IERC721Metadata-name}."
      },
      "ownerOf(uint256)": {
        "details": "See {IERC721-ownerOf}."
      },
      "removeOffer(uint256)": {
        "params": {
          "itemId": ": id of the PASS"
        }
      },
      "rentPass(uint256)": {
        "params": {
          "itemId": ": id of the PASS"
        }
      },
      "retrievePass(uint256)": {
        "params": {
          "itemId": ": id of the PASS"
        }
      },
      "safeTransferFrom(address,address,uint256)": {
        "details": "See {IERC721-safeTransferFrom}."
      },
      "safeTransferFrom(address,address,uint256,bytes)": {
        "details": "See {IERC721-safeTransferFrom}."
      },
      "setApprovalForAll(address,bool)": {
        "details": "See {IERC721-setApprovalForAll}."
      },
      "setOffer(uint256,uint256,uint256)": {
        "params": {
          "_day": ": duration of the offert",
          "_price": ": cost for rent the PASS",
          "itemId": ": id of the PASS"
        }
      },
      "supportsInterface(bytes4)": {
        "details": "See {IERC165-supportsInterface}."
      },
      "symbol()": {
        "details": "See {IERC721Metadata-symbol}."
      },
      "tokenURI(uint256)": {
        "details": "See {IERC721Metadata-tokenURI}."
      },
      "transferFrom(address,address,uint256)": {
        "details": "See {IERC721-transferFrom}."
      },
      "upgradeOffer(uint256,uint256,uint256)": {
        "params": {
          "_day": ": new duration of the offert",
          "_price": ": new cost for rent the PASS",
          "itemId": ": id of the PASS"
        }
      }
    },
    "version": 1
  },
  "userdoc": {
    "events": {
      "Create(uint256)": {
        "notice": "emit an event when a new token is created"
      },
      "Offer(uint256,uint256,uint256)": {
        "notice": "emit an event when a new offert about token is set"
      },
      "Rent(uint256)": {
        "notice": "emit an event when a consumer rent a PASS"
      },
      "Upgrade(uint256,uint256,uint256)": {
        "notice": "emit an event when a upgrade about token offert is set"
      }
    },
    "kind": "user",
    "methods": {},
    "notice": "You can use this contract for only the most basic simulation",
    "version": 1
  }
}